{
  "_format": "hh-sol-artifact-1",
  "contractName": "Attendance",
  "sourceName": "contracts/Attendance.sol",
  "abi": [
    {
      "inputs": [],
      "stateMutability": "nonpayable",
      "type": "constructor"
    },
    {
      "inputs": [],
      "name": "admin",
      "outputs": [
        {
          "internalType": "address",
          "name": "",
          "type": "address"
        }
      ],
      "stateMutability": "view",
      "type": "function"
    },
    {
      "inputs": [],
      "name": "getAttendance",
      "outputs": [
        {
          "components": [
            {
              "internalType": "string",
              "name": "studentID",
              "type": "string"
            },
            {
              "internalType": "uint256",
              "name": "timestamp",
              "type": "uint256"
            },
            {
              "internalType": "uint256",
              "name": "blockNumber",
              "type": "uint256"
            },
            {
              "internalType": "address",
              "name": "markedBy",
              "type": "address"
            }
          ],
          "internalType": "struct Attendance.AttendanceRecord[]",
          "name": "",
          "type": "tuple[]"
        }
      ],
      "stateMutability": "view",
      "type": "function"
    },
    {
      "inputs": [
        {
          "internalType": "string",
          "name": "_studentID",
          "type": "string"
        }
      ],
      "name": "markAttendance",
      "outputs": [],
      "stateMutability": "nonpayable",
      "type": "function"
    },
    {
      "inputs": [
        {
          "internalType": "uint256",
          "name": "",
          "type": "uint256"
        }
      ],
      "name": "records",
      "outputs": [
        {
          "internalType": "string",
          "name": "studentID",
          "type": "string"
        },
        {
          "internalType": "uint256",
          "name": "timestamp",
          "type": "uint256"
        },
        {
          "internalType": "uint256",
          "name": "blockNumber",
          "type": "uint256"
        },
        {
          "internalType": "address",
          "name": "markedBy",
          "type": "address"
        }
      ],
      "stateMutability": "view",
      "type": "function"
    },
    {
      "inputs": [
        {
          "internalType": "address",
          "name": "_student",
          "type": "address"
        },
        {
          "internalType": "string",
          "name": "_studentID",
          "type": "string"
        }
      ],
      "name": "registerStudent",
      "outputs": [],
      "stateMutability": "nonpayable",
      "type": "function"
    },
    {
      "inputs": [
        {
          "internalType": "address",
          "name": "_teacher",
          "type": "address"
        }
      ],
      "name": "registerTeacher",
      "outputs": [],
      "stateMutability": "nonpayable",
      "type": "function"
    },
    {
      "inputs": [
        {
          "internalType": "address",
          "name": "",
          "type": "address"
        }
      ],
      "name": "studentIDs",
      "outputs": [
        {
          "internalType": "string",
          "name": "",
          "type": "string"
        }
      ],
      "stateMutability": "view",
      "type": "function"
    },
    {
      "inputs": [
        {
          "internalType": "address",
          "name": "",
          "type": "address"
        }
      ],
      "name": "teachers",
      "outputs": [
        {
          "internalType": "bool",
          "name": "",
          "type": "bool"
        }
      ],
      "stateMutability": "view",
      "type": "function"
    }
  ],
  "bytecode": "0x608060405234801561001057600080fd5b50336000806101000a81548173ffffffffffffffffffffffffffffffffffffffff021916908373ffffffffffffffffffffffffffffffffffffffff160217905550611404806100606000396000f3fe608060405234801561001057600080fd5b50600436106100885760003560e01c80637cb458811161005b5780637cb45881146101165780639d02145214610132578063f0a47f7814610162578063f851a4401461019257610088565b8063165983421461008d5780631d379d52146100a957806334461067146100c757806359267a00146100fa575b600080fd5b6100a760048036038101906100a29190610af8565b6101b0565b005b6100b161028f565b6040516100be9190610d20565b60405180910390f35b6100e160048036038101906100dc9190610d6e565b6103ea565b6040516100f19493929190610e03565b60405180910390f35b610114600480360381019061010f9190610e4f565b6104d2565b005b610130600480360381019061012b9190610e98565b610773565b005b61014c60048036038101906101479190610e98565b61085c565b6040516101599190610ec5565b60405180910390f35b61017c60048036038101906101779190610e98565b6108fc565b6040516101899190610f02565b60405180910390f35b61019a61091c565b6040516101a79190610f1d565b60405180910390f35b60008054906101000a900473ffffffffffffffffffffffffffffffffffffffff1673ffffffffffffffffffffffffffffffffffffffff163373ffffffffffffffffffffffffffffffffffffffff161461023e576040517f08c379a000000000000000000000000000000000000000000000000000000000815260040161023590610f84565b60405180910390fd5b80600360008473ffffffffffffffffffffffffffffffffffffffff1673ffffffffffffffffffffffffffffffffffffffff168152602001908152602001600020908161028a91906111b0565b505050565b60606001805480602002602001604051908101604052809291908181526020016000905b828210156103e157838290600052602060002090600402016040518060800160405290816000820180546102e690610fd3565b80601f016020809104026020016040519081016040528092919081815260200182805461031290610fd3565b801561035f5780601f106103345761010080835404028352916020019161035f565b820191906000526020600020905b81548152906001019060200180831161034257829003601f168201915b5050505050815260200160018201548152602001600282015481526020016003820160009054906101000a900473ffffffffffffffffffffffffffffffffffffffff1673ffffffffffffffffffffffffffffffffffffffff1673ffffffffffffffffffffffffffffffffffffffff1681525050815260200190600101906102b3565b50505050905090565b600181815481106103fa57600080fd5b906000526020600020906004020160009150905080600001805461041d90610fd3565b80601f016020809104026020016040519081016040528092919081815260200182805461044990610fd3565b80156104965780601f1061046b57610100808354040283529160200191610496565b820191906000526020600020905b81548152906001019060200180831161047957829003601f168201915b5050505050908060010154908060020154908060030160009054906101000a900473ffffffffffffffffffffffffffffffffffffffff16905084565b600260003373ffffffffffffffffffffffffffffffffffffffff1673ffffffffffffffffffffffffffffffffffffffff16815260200190815260200160002060009054906101000a900460ff16156105fe57600160405180608001604052808381526020014281526020014381526020013373ffffffffffffffffffffffffffffffffffffffff168152509080600181540180825580915050600190039060005260206000209060040201600090919091909150600082015181600001908161059b91906111b0565b50602082015181600101556040820151816002015560608201518160030160006101000a81548173ffffffffffffffffffffffffffffffffffffffff021916908373ffffffffffffffffffffffffffffffffffffffff1602179055505050610770565b8080519060200120600360003373ffffffffffffffffffffffffffffffffffffffff1673ffffffffffffffffffffffffffffffffffffffff1681526020019081526020016000206040516106529190611325565b60405180910390201461069a576040517f08c379a0000000000000000000000000000000000000000000000000000000008152600401610691906113ae565b60405180910390fd5b600160405180608001604052808381526020014281526020014381526020013373ffffffffffffffffffffffffffffffffffffffff168152509080600181540180825580915050600190039060005260206000209060040201600090919091909150600082015181600001908161071191906111b0565b50602082015181600101556040820151816002015560608201518160030160006101000a81548173ffffffffffffffffffffffffffffffffffffffff021916908373ffffffffffffffffffffffffffffffffffffffff16021790555050505b50565b60008054906101000a900473ffffffffffffffffffffffffffffffffffffffff1673ffffffffffffffffffffffffffffffffffffffff163373ffffffffffffffffffffffffffffffffffffffff1614610801576040517f08c379a00000000000000000000000000000000000000000000000000000000081526004016107f890610f84565b60405180910390fd5b6001600260008373ffffffffffffffffffffffffffffffffffffffff1673ffffffffffffffffffffffffffffffffffffffff16815260200190815260200160002060006101000a81548160ff02191690831515021790555050565b6003602052806000526040600020600091509050805461087b90610fd3565b80601f01602080910402602001604051908101604052809291908181526020018280546108a790610fd3565b80156108f45780601f106108c9576101008083540402835291602001916108f4565b820191906000526020600020905b8154815290600101906020018083116108d757829003601f168201915b505050505081565b60026020528060005260406000206000915054906101000a900460ff1681565b60008054906101000a900473ffffffffffffffffffffffffffffffffffffffff1681565b6000604051905090565b600080fd5b600080fd5b600073ffffffffffffffffffffffffffffffffffffffff82169050919050565b600061097f82610954565b9050919050565b61098f81610974565b811461099a57600080fd5b50565b6000813590506109ac81610986565b92915050565b600080fd5b600080fd5b6000601f19601f8301169050919050565b7f4e487b7100000000000000000000000000000000000000000000000000000000600052604160045260246000fd5b610a05826109bc565b810181811067ffffffffffffffff82111715610a2457610a236109cd565b5b80604052505050565b6000610a37610940565b9050610a4382826109fc565b919050565b600067ffffffffffffffff821115610a6357610a626109cd565b5b610a6c826109bc565b9050602081019050919050565b82818337600083830152505050565b6000610a9b610a9684610a48565b610a2d565b905082815260208101848484011115610ab757610ab66109b7565b5b610ac2848285610a79565b509392505050565b600082601f830112610adf57610ade6109b2565b5b8135610aef848260208601610a88565b91505092915050565b60008060408385031215610b0f57610b0e61094a565b5b6000610b1d8582860161099d565b925050602083013567ffffffffffffffff811115610b3e57610b3d61094f565b5b610b4a85828601610aca565b9150509250929050565b600081519050919050565b600082825260208201905092915050565b6000819050602082019050919050565b600081519050919050565b600082825260208201905092915050565b60005b83811015610bba578082015181840152602081019050610b9f565b60008484015250505050565b6000610bd182610b80565b610bdb8185610b8b565b9350610beb818560208601610b9c565b610bf4816109bc565b840191505092915050565b6000819050919050565b610c1281610bff565b82525050565b610c2181610974565b82525050565b60006080830160008301518482036000860152610c448282610bc6565b9150506020830151610c596020860182610c09565b506040830151610c6c6040860182610c09565b506060830151610c7f6060860182610c18565b508091505092915050565b6000610c968383610c27565b905092915050565b6000602082019050919050565b6000610cb682610b54565b610cc08185610b5f565b935083602082028501610cd285610b70565b8060005b85811015610d0e5784840389528151610cef8582610c8a565b9450610cfa83610c9e565b925060208a01995050600181019050610cd6565b50829750879550505050505092915050565b60006020820190508181036000830152610d3a8184610cab565b905092915050565b610d4b81610bff565b8114610d5657600080fd5b50565b600081359050610d6881610d42565b92915050565b600060208284031215610d8457610d8361094a565b5b6000610d9284828501610d59565b91505092915050565b600082825260208201905092915050565b6000610db782610b80565b610dc18185610d9b565b9350610dd1818560208601610b9c565b610dda816109bc565b840191505092915050565b610dee81610bff565b82525050565b610dfd81610974565b82525050565b60006080820190508181036000830152610e1d8187610dac565b9050610e2c6020830186610de5565b610e396040830185610de5565b610e466060830184610df4565b95945050505050565b600060208284031215610e6557610e6461094a565b5b600082013567ffffffffffffffff811115610e8357610e8261094f565b5b610e8f84828501610aca565b91505092915050565b600060208284031215610eae57610ead61094a565b5b6000610ebc8482850161099d565b91505092915050565b60006020820190508181036000830152610edf8184610dac565b905092915050565b60008115159050919050565b610efc81610ee7565b82525050565b6000602082019050610f176000830184610ef3565b92915050565b6000602082019050610f326000830184610df4565b92915050565b7f4f6e6c792061646d696e20616c6c6f7765640000000000000000000000000000600082015250565b6000610f6e601283610d9b565b9150610f7982610f38565b602082019050919050565b60006020820190508181036000830152610f9d81610f61565b9050919050565b7f4e487b7100000000000000000000000000000000000000000000000000000000600052602260045260246000fd5b60006002820490506001821680610feb57607f821691505b602082108103610ffe57610ffd610fa4565b5b50919050565b60008190508160005260206000209050919050565b60006020601f8301049050919050565b600082821b905092915050565b6000600883026110667fffffffffffffffffffffffffffffffffffffffffffffffffffffffffffffffff82611029565b6110708683611029565b95508019841693508086168417925050509392505050565b6000819050919050565b60006110ad6110a86110a384610bff565b611088565b610bff565b9050919050565b6000819050919050565b6110c783611092565b6110db6110d3826110b4565b848454611036565b825550505050565b600090565b6110f06110e3565b6110fb8184846110be565b505050565b5b8181101561111f576111146000826110e8565b600181019050611101565b5050565b601f8211156111645761113581611004565b61113e84611019565b8101602085101561114d578190505b61116161115985611019565b830182611100565b50505b505050565b600082821c905092915050565b600061118760001984600802611169565b1980831691505092915050565b60006111a08383611176565b9150826002028217905092915050565b6111b982610b80565b67ffffffffffffffff8111156111d2576111d16109cd565b5b6111dc8254610fd3565b6111e7828285611123565b600060209050601f83116001811461121a5760008415611208578287015190505b6112128582611194565b86555061127a565b601f19841661122886611004565b60005b828110156112505784890151825560018201915060208501945060208101905061122b565b8683101561126d5784890151611269601f891682611176565b8355505b6001600288020188555050505b505050505050565b600081905092915050565b60008190508160005260206000209050919050565b600081546112af81610fd3565b6112b98186611282565b945060018216600081146112d457600181146112e95761131c565b60ff198316865281151582028601935061131c565b6112f28561128d565b60005b83811015611314578154818901526001820191506020810190506112f5565b838801955050505b50505092915050565b600061133182846112a2565b915081905092915050565b7f53747564656e74732063616e206d61726b206f6e6c79207468656972206f776e60008201527f20617474656e64616e6365000000000000000000000000000000000000000000602082015250565b6000611398602b83610d9b565b91506113a38261133c565b604082019050919050565b600060208201905081810360008301526113c78161138b565b905091905056fea264697066735822122045d0c7d2d553b605f00a959ea0e2534cf19c29736d9d9699f5d06fede3cecefc64736f6c63430008140033",
  "linkReferences": {},
  "deployedLinkReferences": {}
}