{
  "_format": "hh-sol-artifact-1",
  "contractName": "Attendance",
  "sourceName": "contracts/Attendance.sol",
  "abi": [
    {
      "inputs": [],
      "stateMutability": "nonpayable",
      "type": "constructor"
    },
    {
      "inputs": [],
      "name": "admin",
      "outputs": [
        {
          "internalType": "address",
          "name": "",
          "type": "address"
        }
      ],
      "stateMutability": "view",
      "type": "function"
    },
    {
      "inputs": [],
      "name": "getAttendance",
      "outputs": [
        {
          "components": [
            {
              "internalType": "string",
              "name": "studentID",
              "type": "string"
            },
            {
              "internalType": "uint256",
              "name": "timestamp",
              "type": "uint256"
            },
            {
              "internalType": "uint256",
              "name": "blockNumber",
              "type": "uint256"
            },
            {
              "internalType": "address",
              "name": "markedBy",
              "type": "address"
            }
          ],
          "internalType": "struct Attendance.AttendanceRecord[]",
          "name": "",
          "type": "tuple[]"
        }
      ],
      "stateMutability": "view",
      "type": "function"
    },
    {
      "inputs": [
        {
          "internalType": "string",
          "name": "_studentID",
          "type": "string"
        }
      ],
      "name": "markAttendance",
      "outputs": [],
      "stateMutability": "nonpayable",
      "type": "function"
    },
    {
      "inputs": [
        {
          "internalType": "uint256",
          "name": "",
          "type": "uint256"
        }
      ],
      "name": "records",
      "outputs": [
        {
          "internalType": "string",
          "name": "studentID",
          "type": "string"
        },
        {
          "internalType": "uint256",
          "name": "timestamp",
          "type": "uint256"
        },
        {
          "internalType": "uint256",
          "name": "blockNumber",
          "type": "uint256"
        },
        {
          "internalType": "address",
          "name": "markedBy",
          "type": "address"
        }
      ],
      "stateMutability": "view",
      "type": "function"
    },
    {
      "inputs": [
        {
          "internalType": "address",
          "name": "_student",
          "type": "address"
        },
        {
          "internalType": "string",
          "name": "_studentID",
          "type": "string"
        }
      ],
      "name": "registerStudent",
      "outputs": [],
      "stateMutability": "nonpayable",
      "type": "function"
    },
    {
      "inputs": [
        {
          "internalType": "address",
          "name": "_teacher",
          "type": "address"
        }
      ],
      "name": "registerTeacher",
      "outputs": [],
      "stateMutability": "nonpayable",
      "type": "function"
    },
    {
      "inputs": [
        {
          "internalType": "address",
          "name": "",
          "type": "address"
        }
      ],
      "name": "studentIDs",
      "outputs": [
        {
          "internalType": "string",
          "name": "",
          "type": "string"
        }
      ],
      "stateMutability": "view",
      "type": "function"
    },
    {
      "inputs": [
        {
          "internalType": "address",
          "name": "",
          "type": "address"
        }
      ],
      "name": "teachers",
      "outputs": [
        {
          "internalType": "bool",
          "name": "",
          "type": "bool"
        }
      ],
      "stateMutability": "view",
      "type": "function"
    }
  ],
  "bytecode": "0x608060405234801561001057600080fd5b50336000806101000a81548173ffffffffffffffffffffffffffffffffffffffff021916908373ffffffffffffffffffffffffffffffffffffffff1602179055506110ef806100606000396000f3fe608060405234801561001057600080fd5b50600436106100885760003560e01c80637cb458811161005b5780637cb45881146101165780639d02145214610132578063f0a47f7814610162578063f851a4401461019257610088565b8063165983421461008d5780631d379d52146100a957806334461067146100c757806359267a00146100fa575b600080fd5b6100a760048036038101906100a2919061092f565b6101b0565b005b6100b161028f565b6040516100be9190610b57565b60405180910390f35b6100e160048036038101906100dc9190610ba5565b6103ea565b6040516100f19493929190610c3a565b60405180910390f35b610114600480360381019061010f9190610c86565b6104d2565b005b610130600480360381019061012b9190610ccf565b6105aa565b005b61014c60048036038101906101479190610ccf565b610693565b6040516101599190610cfc565b60405180910390f35b61017c60048036038101906101779190610ccf565b610733565b6040516101899190610d39565b60405180910390f35b61019a610753565b6040516101a79190610d54565b60405180910390f35b60008054906101000a900473ffffffffffffffffffffffffffffffffffffffff1673ffffffffffffffffffffffffffffffffffffffff163373ffffffffffffffffffffffffffffffffffffffff161461023e576040517f08c379a000000000000000000000000000000000000000000000000000000000815260040161023590610dbb565b60405180910390fd5b80600360008473ffffffffffffffffffffffffffffffffffffffff1673ffffffffffffffffffffffffffffffffffffffff168152602001908152602001600020908161028a9190610fe7565b505050565b60606001805480602002602001604051908101604052809291908181526020016000905b828210156103e157838290600052602060002090600402016040518060800160405290816000820180546102e690610e0a565b80601f016020809104026020016040519081016040528092919081815260200182805461031290610e0a565b801561035f5780601f106103345761010080835404028352916020019161035f565b820191906000526020600020905b81548152906001019060200180831161034257829003601f168201915b5050505050815260200160018201548152602001600282015481526020016003820160009054906101000a900473ffffffffffffffffffffffffffffffffffffffff1673ffffffffffffffffffffffffffffffffffffffff1673ffffffffffffffffffffffffffffffffffffffff1681525050815260200190600101906102b3565b50505050905090565b600181815481106103fa57600080fd5b906000526020600020906004020160009150905080600001805461041d90610e0a565b80601f016020809104026020016040519081016040528092919081815260200182805461044990610e0a565b80156104965780601f1061046b57610100808354040283529160200191610496565b820191906000526020600020905b81548152906001019060200180831161047957829003601f168201915b5050505050908060010154908060020154908060030160009054906101000a900473ffffffffffffffffffffffffffffffffffffffff16905084565b600160405180608001604052808381526020014281526020014381526020013373ffffffffffffffffffffffffffffffffffffffff16815250908060018154018082558091505060019003906000526020600020906004020160009091909190915060008201518160000190816105499190610fe7565b50602082015181600101556040820151816002015560608201518160030160006101000a81548173ffffffffffffffffffffffffffffffffffffffff021916908373ffffffffffffffffffffffffffffffffffffffff160217905550505050565b60008054906101000a900473ffffffffffffffffffffffffffffffffffffffff1673ffffffffffffffffffffffffffffffffffffffff163373ffffffffffffffffffffffffffffffffffffffff1614610638576040517f08c379a000000000000000000000000000000000000000000000000000000000815260040161062f90610dbb565b60405180910390fd5b6001600260008373ffffffffffffffffffffffffffffffffffffffff1673ffffffffffffffffffffffffffffffffffffffff16815260200190815260200160002060006101000a81548160ff02191690831515021790555050565b600360205280600052604060002060009150905080546106b290610e0a565b80601f01602080910402602001604051908101604052809291908181526020018280546106de90610e0a565b801561072b5780601f106107005761010080835404028352916020019161072b565b820191906000526020600020905b81548152906001019060200180831161070e57829003601f168201915b505050505081565b60026020528060005260406000206000915054906101000a900460ff1681565b60008054906101000a900473ffffffffffffffffffffffffffffffffffffffff1681565b6000604051905090565b600080fd5b600080fd5b600073ffffffffffffffffffffffffffffffffffffffff82169050919050565b60006107b68261078b565b9050919050565b6107c6816107ab565b81146107d157600080fd5b50565b6000813590506107e3816107bd565b92915050565b600080fd5b600080fd5b6000601f19601f8301169050919050565b7f4e487b7100000000000000000000000000000000000000000000000000000000600052604160045260246000fd5b61083c826107f3565b810181811067ffffffffffffffff8211171561085b5761085a610804565b5b80604052505050565b600061086e610777565b905061087a8282610833565b919050565b600067ffffffffffffffff82111561089a57610899610804565b5b6108a3826107f3565b9050602081019050919050565b82818337600083830152505050565b60006108d26108cd8461087f565b610864565b9050828152602081018484840111156108ee576108ed6107ee565b5b6108f98482856108b0565b509392505050565b600082601f830112610916576109156107e9565b5b81356109268482602086016108bf565b91505092915050565b6000806040838503121561094657610945610781565b5b6000610954858286016107d4565b925050602083013567ffffffffffffffff81111561097557610974610786565b5b61098185828601610901565b9150509250929050565b600081519050919050565b600082825260208201905092915050565b6000819050602082019050919050565b600081519050919050565b600082825260208201905092915050565b60005b838110156109f15780820151818401526020810190506109d6565b60008484015250505050565b6000610a08826109b7565b610a1281856109c2565b9350610a228185602086016109d3565b610a2b816107f3565b840191505092915050565b6000819050919050565b610a4981610a36565b82525050565b610a58816107ab565b82525050565b60006080830160008301518482036000860152610a7b82826109fd565b9150506020830151610a906020860182610a40565b506040830151610aa36040860182610a40565b506060830151610ab66060860182610a4f565b508091505092915050565b6000610acd8383610a5e565b905092915050565b6000602082019050919050565b6000610aed8261098b565b610af78185610996565b935083602082028501610b09856109a7565b8060005b85811015610b455784840389528151610b268582610ac1565b9450610b3183610ad5565b925060208a01995050600181019050610b0d565b50829750879550505050505092915050565b60006020820190508181036000830152610b718184610ae2565b905092915050565b610b8281610a36565b8114610b8d57600080fd5b50565b600081359050610b9f81610b79565b92915050565b600060208284031215610bbb57610bba610781565b5b6000610bc984828501610b90565b91505092915050565b600082825260208201905092915050565b6000610bee826109b7565b610bf88185610bd2565b9350610c088185602086016109d3565b610c11816107f3565b840191505092915050565b610c2581610a36565b82525050565b610c34816107ab565b82525050565b60006080820190508181036000830152610c548187610be3565b9050610c636020830186610c1c565b610c706040830185610c1c565b610c7d6060830184610c2b565b95945050505050565b600060208284031215610c9c57610c9b610781565b5b600082013567ffffffffffffffff811115610cba57610cb9610786565b5b610cc684828501610901565b91505092915050565b600060208284031215610ce557610ce4610781565b5b6000610cf3848285016107d4565b91505092915050565b60006020820190508181036000830152610d168184610be3565b905092915050565b60008115159050919050565b610d3381610d1e565b82525050565b6000602082019050610d4e6000830184610d2a565b92915050565b6000602082019050610d696000830184610c2b565b92915050565b7f4f6e6c792061646d696e20616c6c6f7765640000000000000000000000000000600082015250565b6000610da5601283610bd2565b9150610db082610d6f565b602082019050919050565b60006020820190508181036000830152610dd481610d98565b9050919050565b7f4e487b7100000000000000000000000000000000000000000000000000000000600052602260045260246000fd5b60006002820490506001821680610e2257607f821691505b602082108103610e3557610e34610ddb565b5b50919050565b60008190508160005260206000209050919050565b60006020601f8301049050919050565b600082821b905092915050565b600060088302610e9d7fffffffffffffffffffffffffffffffffffffffffffffffffffffffffffffffff82610e60565b610ea78683610e60565b95508019841693508086168417925050509392505050565b6000819050919050565b6000610ee4610edf610eda84610a36565b610ebf565b610a36565b9050919050565b6000819050919050565b610efe83610ec9565b610f12610f0a82610eeb565b848454610e6d565b825550505050565b600090565b610f27610f1a565b610f32818484610ef5565b505050565b5b81811015610f5657610f4b600082610f1f565b600181019050610f38565b5050565b601f821115610f9b57610f6c81610e3b565b610f7584610e50565b81016020851015610f84578190505b610f98610f9085610e50565b830182610f37565b50505b505050565b600082821c905092915050565b6000610fbe60001984600802610fa0565b1980831691505092915050565b6000610fd78383610fad565b9150826002028217905092915050565b610ff0826109b7565b67ffffffffffffffff81111561100957611008610804565b5b6110138254610e0a565b61101e828285610f5a565b600060209050601f831160018114611051576000841561103f578287015190505b6110498582610fcb565b8655506110b1565b601f19841661105f86610e3b565b60005b8281101561108757848901518255600182019150602085019450602081019050611062565b868310156110a457848901516110a0601f891682610fad565b8355505b6001600288020188555050505b50505050505056fea264697066735822122094c5a2da43d987c4456c1b8768b7c64c9f705b6426793a58598ff2f01a1a4f6864736f6c63430008140033",
  "linkReferences": {},
  "deployedLinkReferences": {}
}