{
  "_format": "hh-sol-artifact-1",
  "contractName": "Attendance",
  "sourceName": "contracts/Attendance.sol",
  "abi": [
    {
      "inputs": [],
      "stateMutability": "nonpayable",
      "type": "constructor"
    },
    {
      "inputs": [],
      "name": "admin",
      "outputs": [
        {
          "internalType": "address",
          "name": "",
          "type": "address"
        }
      ],
      "stateMutability": "view",
      "type": "function"
    },
    {
      "inputs": [],
      "name": "getAttendance",
      "outputs": [
        {
          "components": [
            {
              "internalType": "string",
              "name": "studentID",
              "type": "string"
            },
            {
              "internalType": "uint256",
              "name": "timestamp",
              "type": "uint256"
            },
            {
              "internalType": "uint256",
              "name": "blockNumber",
              "type": "uint256"
            },
            {
              "internalType": "address",
              "name": "markedBy",
              "type": "address"
            }
          ],
          "internalType": "struct Attendance.AttendanceRecord[]",
          "name": "",
          "type": "tuple[]"
        }
      ],
      "stateMutability": "view",
      "type": "function"
    },
    {
      "inputs": [
        {
          "internalType": "string",
          "name": "_studentID",
          "type": "string"
        }
      ],
      "name": "markAttendance",
      "outputs": [],
      "stateMutability": "nonpayable",
      "type": "function"
    },
    {
      "inputs": [
        {
          "internalType": "uint256",
          "name": "",
          "type": "uint256"
        }
      ],
      "name": "records",
      "outputs": [
        {
          "internalType": "string",
          "name": "studentID",
          "type": "string"
        },
        {
          "internalType": "uint256",
          "name": "timestamp",
          "type": "uint256"
        },
        {
          "internalType": "uint256",
          "name": "blockNumber",
          "type": "uint256"
        },
        {
          "internalType": "address",
          "name": "markedBy",
          "type": "address"
        }
      ],
      "stateMutability": "view",
      "type": "function"
    },
    {
      "inputs": [
        {
          "internalType": "address",
          "name": "_teacher",
          "type": "address"
        }
      ],
      "name": "registerTeacher",
      "outputs": [],
      "stateMutability": "nonpayable",
      "type": "function"
    },
    {
      "inputs": [
        {
          "internalType": "address",
          "name": "",
          "type": "address"
        }
      ],
      "name": "teachers",
      "outputs": [
        {
          "internalType": "bool",
          "name": "",
          "type": "bool"
        }
      ],
      "stateMutability": "view",
      "type": "function"
    }
  ],
  "bytecode": "0x608060405234801561001057600080fd5b50336000806101000a81548173ffffffffffffffffffffffffffffffffffffffff021916908373ffffffffffffffffffffffffffffffffffffffff160217905550610f78806100606000396000f3fe608060405234801561001057600080fd5b50600436106100625760003560e01c80631d379d5214610067578063344610671461008557806359267a00146100b85780637cb45881146100d4578063f0a47f78146100f0578063f851a44014610120575b600080fd5b61006f61013e565b60405161007c9190610821565b60405180910390f35b61009f600480360381019061009a9190610883565b610299565b6040516100af9493929190610918565b60405180910390f35b6100d260048036038101906100cd9190610a99565b610381565b005b6100ee60048036038101906100e99190610b0e565b6104e5565b005b61010a60048036038101906101059190610b0e565b6105ce565b6040516101179190610b56565b60405180910390f35b6101286105ee565b6040516101359190610b71565b60405180910390f35b60606001805480602002602001604051908101604052809291908181526020016000905b82821015610290578382906000526020600020906004020160405180608001604052908160008201805461019590610bbb565b80601f01602080910402602001604051908101604052809291908181526020018280546101c190610bbb565b801561020e5780601f106101e35761010080835404028352916020019161020e565b820191906000526020600020905b8154815290600101906020018083116101f157829003601f168201915b5050505050815260200160018201548152602001600282015481526020016003820160009054906101000a900473ffffffffffffffffffffffffffffffffffffffff1673ffffffffffffffffffffffffffffffffffffffff1673ffffffffffffffffffffffffffffffffffffffff168152505081526020019060010190610162565b50505050905090565b600181815481106102a957600080fd5b90600052602060002090600402016000915090508060000180546102cc90610bbb565b80601f01602080910402602001604051908101604052809291908181526020018280546102f890610bbb565b80156103455780601f1061031a57610100808354040283529160200191610345565b820191906000526020600020905b81548152906001019060200180831161032857829003601f168201915b5050505050908060010154908060020154908060030160009054906101000a900473ffffffffffffffffffffffffffffffffffffffff16905084565b600260003373ffffffffffffffffffffffffffffffffffffffff1673ffffffffffffffffffffffffffffffffffffffff16815260200190815260200160002060009054906101000a900460ff1661040d576040517f08c379a000000000000000000000000000000000000000000000000000000000815260040161040490610c38565b60405180910390fd5b600160405180608001604052808381526020014281526020014381526020013373ffffffffffffffffffffffffffffffffffffffff16815250908060018154018082558091505060019003906000526020600020906004020160009091909190915060008201518160000190816104849190610e04565b50602082015181600101556040820151816002015560608201518160030160006101000a81548173ffffffffffffffffffffffffffffffffffffffff021916908373ffffffffffffffffffffffffffffffffffffffff160217905550505050565b60008054906101000a900473ffffffffffffffffffffffffffffffffffffffff1673ffffffffffffffffffffffffffffffffffffffff163373ffffffffffffffffffffffffffffffffffffffff1614610573576040517f08c379a000000000000000000000000000000000000000000000000000000000815260040161056a90610f22565b60405180910390fd5b6001600260008373ffffffffffffffffffffffffffffffffffffffff1673ffffffffffffffffffffffffffffffffffffffff16815260200190815260200160002060006101000a81548160ff02191690831515021790555050565b60026020528060005260406000206000915054906101000a900460ff1681565b60008054906101000a900473ffffffffffffffffffffffffffffffffffffffff1681565b600081519050919050565b600082825260208201905092915050565b6000819050602082019050919050565b600081519050919050565b600082825260208201905092915050565b60005b8381101561067857808201518184015260208101905061065d565b60008484015250505050565b6000601f19601f8301169050919050565b60006106a08261063e565b6106aa8185610649565b93506106ba81856020860161065a565b6106c381610684565b840191505092915050565b6000819050919050565b6106e1816106ce565b82525050565b600073ffffffffffffffffffffffffffffffffffffffff82169050919050565b6000610712826106e7565b9050919050565b61072281610707565b82525050565b600060808301600083015184820360008601526107458282610695565b915050602083015161075a60208601826106d8565b50604083015161076d60408601826106d8565b5060608301516107806060860182610719565b508091505092915050565b60006107978383610728565b905092915050565b6000602082019050919050565b60006107b782610612565b6107c1818561061d565b9350836020820285016107d38561062e565b8060005b8581101561080f57848403895281516107f0858261078b565b94506107fb8361079f565b925060208a019950506001810190506107d7565b50829750879550505050505092915050565b6000602082019050818103600083015261083b81846107ac565b905092915050565b6000604051905090565b600080fd5b600080fd5b610860816106ce565b811461086b57600080fd5b50565b60008135905061087d81610857565b92915050565b6000602082840312156108995761089861084d565b5b60006108a78482850161086e565b91505092915050565b600082825260208201905092915050565b60006108cc8261063e565b6108d681856108b0565b93506108e681856020860161065a565b6108ef81610684565b840191505092915050565b610903816106ce565b82525050565b61091281610707565b82525050565b6000608082019050818103600083015261093281876108c1565b905061094160208301866108fa565b61094e60408301856108fa565b61095b6060830184610909565b95945050505050565b600080fd5b600080fd5b7f4e487b7100000000000000000000000000000000000000000000000000000000600052604160045260246000fd5b6109a682610684565b810181811067ffffffffffffffff821117156109c5576109c461096e565b5b80604052505050565b60006109d8610843565b90506109e4828261099d565b919050565b600067ffffffffffffffff821115610a0457610a0361096e565b5b610a0d82610684565b9050602081019050919050565b82818337600083830152505050565b6000610a3c610a37846109e9565b6109ce565b905082815260208101848484011115610a5857610a57610969565b5b610a63848285610a1a565b509392505050565b600082601f830112610a8057610a7f610964565b5b8135610a90848260208601610a29565b91505092915050565b600060208284031215610aaf57610aae61084d565b5b600082013567ffffffffffffffff811115610acd57610acc610852565b5b610ad984828501610a6b565b91505092915050565b610aeb81610707565b8114610af657600080fd5b50565b600081359050610b0881610ae2565b92915050565b600060208284031215610b2457610b2361084d565b5b6000610b3284828501610af9565b91505092915050565b60008115159050919050565b610b5081610b3b565b82525050565b6000602082019050610b6b6000830184610b47565b92915050565b6000602082019050610b866000830184610909565b92915050565b7f4e487b7100000000000000000000000000000000000000000000000000000000600052602260045260246000fd5b60006002820490506001821680610bd357607f821691505b602082108103610be657610be5610b8c565b5b50919050565b7f4f6e6c79207465616368657220616c6c6f776564000000000000000000000000600082015250565b6000610c226014836108b0565b9150610c2d82610bec565b602082019050919050565b60006020820190508181036000830152610c5181610c15565b9050919050565b60008190508160005260206000209050919050565b60006020601f8301049050919050565b600082821b905092915050565b600060088302610cba7fffffffffffffffffffffffffffffffffffffffffffffffffffffffffffffffff82610c7d565b610cc48683610c7d565b95508019841693508086168417925050509392505050565b6000819050919050565b6000610d01610cfc610cf7846106ce565b610cdc565b6106ce565b9050919050565b6000819050919050565b610d1b83610ce6565b610d2f610d2782610d08565b848454610c8a565b825550505050565b600090565b610d44610d37565b610d4f818484610d12565b505050565b5b81811015610d7357610d68600082610d3c565b600181019050610d55565b5050565b601f821115610db857610d8981610c58565b610d9284610c6d565b81016020851015610da1578190505b610db5610dad85610c6d565b830182610d54565b50505b505050565b600082821c905092915050565b6000610ddb60001984600802610dbd565b1980831691505092915050565b6000610df48383610dca565b9150826002028217905092915050565b610e0d8261063e565b67ffffffffffffffff811115610e2657610e2561096e565b5b610e308254610bbb565b610e3b828285610d77565b600060209050601f831160018114610e6e5760008415610e5c578287015190505b610e668582610de8565b865550610ece565b601f198416610e7c86610c58565b60005b82811015610ea457848901518255600182019150602085019450602081019050610e7f565b86831015610ec15784890151610ebd601f891682610dca565b8355505b6001600288020188555050505b505050505050565b7f4f6e6c792061646d696e20616c6c6f7765640000000000000000000000000000600082015250565b6000610f0c6012836108b0565b9150610f1782610ed6565b602082019050919050565b60006020820190508181036000830152610f3b81610eff565b905091905056fea26469706673582212206a63163e7c7f98abc606d7eec8869e0369f1d574d7664ff373cf89b52574c12664736f6c63430008140033",
  "linkReferences": {},
  "deployedLinkReferences": {}
}